:020000040800F2
:10000000701000204D020008391500087503000823
:100010003515000889050008C91700080000000010
:100020000000000000000000000000005F02000867
:100030008D05000800000000BB0200083D15000807
:1000400067020008670200086702000867020008EC
:1000500067020008670200086702000867020008DC
:1000600067020008670200086702000867020008CC
:1000700067020008670200086702000867020008BC
:1000800067020008670200086702000867020008AC
:10009000670200086702000867020008670200089C
:1000A000670200086702000867020008670200088C
:1000B000670200086702000867020008670200087C
:1000C000670200086702000867020008670200086C
:1000D000670200086702000867020008670200085C
:1000E000670200086702000867020008670200084C
:1000F000670200086702000867020008670200083C
:10010000670200086702000867020008670200082B
:100110006702000867020008D91600086702000895
:10012000670200086702000867020008670200080B
:1001300067020008670200086702000867020008FB
:1001400067020008670200086702000867020008EB
:1001500067020008670200086702000867020008DB
:1001600067020008670200086702000867020008CB
:10017000670200086702000867020008000000002C
:1001800067020008670200086702000867020008AB
:10019000670200086702000867020008670200089B
:1001A00067020008670200086702000800F002F812
:1001B00000F03CF80AA090E8000C82448344AAF1C5
:1001C0000107DA4501D100F031F8AFF2090EBAE8C3
:1001D0000F0013F0010F18BFFB1A43F0010318477B
:1001E000982A0000B82A0000103A24BF78C878C1C5
:1001F000FAD8520724BF30C830C144BF04680C602D
:10020000704700000023002400250026103A28BF74
:1002100078C1FBD8520728BF30C148BF0B60704778
:100220001FB502F07FFC1FBD10B510BD00F06DF9C9
:100230001146FFF7F5FF00F0A2F900F08BF903B4C7
:10024000FFF7F2FF03BC00F093F900000948804774
:1002500009480047FEE7FEE7FEE7FEE7FEE7FEE7A8
:10026000FEE7FEE7FEE7FEE704480549054A064BC0
:1002700070470000C5160008AD010008700A002094
:1002800070100020700C0020700C0020EFF3108024
:1002900072B6704780F310887047444A1368012B88
:1002A00004D04FF001031360414A1060414A1160CD
:1002B00041484FF0805101607047EFF3108272B6F1
:1002C0003A48016851B34FF00001016038480168B5
:1002D00091B1EFF309811EF0100F08BF21ED108BD3
:1002E00021E9F00F4FF000041EF0100F08BF0124A9
:1002F00041F8044D006801602E490968096808C981
:10030000B1E8F00F002B18BFB1EC108B81F3098816
:100310004EF0100E002B18BF2EF0100E82F3108836
:100320004EF0040E704723490860EFF3148222F068
:10033000040282F314881E494FF0000008601B4934
:100340004FF0010008601D481D49D0F8002041EA27
:100350000201016018484FF080510160194800689F
:10036000006880F3088861B662B6BFF34F8FBFF3B1
:100370006F8F70471EF0040F0CBFEFF30880EFF390
:10038000098020E9F00F40F804ED40F804ED1EF07C
:10039000040F0CBF80F3088880F3098800B501F0D2
:1003A00011FD5DF804EB4EF0040E70471C000020B8
:1003B000140000201800002004ED00E020ED00E013
:1003C0000000FFFF08ED00E053EA020C00F0698036
:1003D0002DE9F04B4FF00006002B1FBFB3FA83F559
:1003E00003FA05F424FA05F65E4012BF1643B2FA8A
:1003F00082F502FA05F4C5F120051EBF22FA05FCBC
:1004000044EA0C04203556EA044C4FEA144418BF61
:10041000641C4FF000084FF00009904271EB030C90
:1004200039D3002919BFB1FA81F701FA07F6B0FAFA
:1004300080F700FA07F6C7F120071EBF20FA07FC75
:1004400046EA0C062037B6FBF4FCA7EB0507103F85
:1004500007F01F0BCBF120060CFA0BFB2CFA06F66B
:1004600044BFB3460026202FA4BF5E464FF0000BCA
:100470005BEA060C08BF4FF0010B19EB0B09ABFB55
:10048000027C48EB0608C01B06FB02CC0BFB03CC2E
:1004900071EB0C01C1E70B46024641464846BDE8F8
:1004A000F08B13B54FF000004FF00001AFF3008068
:1004B000BDE81C4070474FF0000200B5134694465B
:1004C0009646203922BFA0E80C50A0E80C50B1F1AC
:1004D0002001BFF4F7AF090728BFA0E80C5048BFC0
:1004E0000CC05DF804EB890028BF40F8042B08BF5E
:1004F000704748BF20F8022B11F0804F18BF00F85A
:10050000012B7047704770477047754600F02CF814
:10051000AE4605006946534620F00700854618B0F0
:1005200020B5FFF7A1FEBDE820404FF000064FF0D8
:1005300000074FF000084FF0000B21F00701AC4618
:10054000ACE8C009ACE8C009ACE8C009ACE8C00937
:100550008D46704710B50446AFF300802046BDE8D5
:100560001040FFF76CBE000000487047100A0020E2
:1005700001491820ABBEFEE726000200704710B507
:1005800002F093FA002010BD00BFFEE7704772B67C
:1005900000BFFEE7F8B502460B4600250024002008
:1005A0000021E0E0012606FA01F51E6806EA0504CE
:1005B000AC4274D11E7906F00306012E04D01E79D8
:1005C00006F00306022E13D190684F000326BE40AA
:1005D000B0434F00DE68BE40304390605068012653
:1005E0008E40B0431E79C6F300168E4030435060F3
:1005F0001E7906F00306032E09D0D0684F000326AB
:10060000BE40B0434F009E68BE403043D0601E796C
:1006100006F00306022E13D1CF0802F1200656F889
:1006200027004E07F70E0F26BE40B0434F07FF0EC0
:100630001E69BE403043CF0802F1200646F827006D
:1006400010684F000326BE40B0431E7906F0030633
:100650004F00BE40304310605E6806F44036002E06
:100660001DD000BF00260096414E366846F48046F5
:100670003F4F3E603E46366806F48046009600BF17
:1006800000BF3C4E8F0856F827008E07370F0F2605
:10069000BE40B043384EB24202D100262EE061E0A7
:1006A000364EB24201D1012628E0354EB24201D188
:1006B000022623E0334EB24201D103261EE0324E21
:1006C000B24201D1042619E0304EB24201D10526D2
:1006D00014E02F4EB24201D106260FE02D4EB24259
:1006E00001D107260AE02C4EB24201D1082605E0CE
:1006F0002A4EB24201D1092600E00A268F073F0F99
:10070000BE4030431B4E8F0846F82700244E306809
:10071000A0435E6806F4801606B12043204E306088
:10072000361D3068A0435E6806F4001606B120430B
:100730001B4E361D30601A4E361F3068A0435E686F
:1007400006F4003606B12043154E361F3060361FC2
:100750003068A0435E6806F4803606B12043104E30
:10076000083E3060491C1029FFF41CAFF8BD0000A2
:1007700044380240083801400000024000040240B2
:1007800000080240000C0240001002400014024029
:1007900000180240001C02400020024000240240D9
:1007A000083C0140024613690B400BB1012000E0F8
:1007B0000020704710B5426921EA020302EA0104F1
:1007C00043EA0443836110BD0AB1816101E00B0477
:1007D00083617047014800687047000000000020F6
:1007E00003480068034909780844014908607047D4
:1007F000000000200800002010B50D48006840F4FB
:1008000000700B4908600846006840F4806008608A
:100810000846006840F480700860032000F0DAF8B1
:100820000F2000F007F800F05FF8002010BD000076
:10083000003C02402DE9F04188B004460027B8464C
:1008400000BF002001902348006840F010002149BB
:1008500008600846006800F01000019000BF00BF6B
:1008600002A903A800F0D2F9069F1FB900F0F6F91B
:10087000054602E000F0F2F945001748B5FBF0F03C
:10088000A0F1010815481649086040F2E731144804
:10089000C160C0F80480002101618160816100F0C5
:1008A000AFFC064696B90E4800F0DEFC06466EB96F
:1008B000362000F03DF8102C07D2002221463620C9
:1008C00000F04AF80748046000E00126304608B00E
:1008D000BDE8F0814038024040420F000010004067
:1008E000580300200400002008B500BF002000903D
:1008F0000E48006840F480400C49086008460068D3
:1009000000F48040009000BF00BF00BF00200090B6
:10091000081F006840F08050091F08600846006802
:1009200000F08050009000BF00BF08BD4438024076
:100930000146084600280DDB00BF00BF00F01F0382
:1009400001229A4043099B0003F1E023C3F80021F0
:1009500000BF00BF00BF70472DE9F05F80460D4625
:100960001646002700F032FF074639462A4633462E
:1009700001F00700C0F1070ABAF1040F02D94FF0E5
:10098000040A01E0C0F1070AD14600F1040ABAF1F5
:10099000070F02D24FF0000A01E0A0F1030AD4468B
:1009A0004FF0010A0AFA09FAAAF1010A0AEA020A50
:1009B0000AFA0CFA4FF0010B0BFA0CFBABF1010B2E
:1009C0000BEA030B4AEA0B042146404600F006FFFF
:1009D000BDE8F09F00BF00F00702064B19684FF614
:1009E000FF031940044B0B4343EA0221014B1960FA
:1009F00000BF70470CED00E00000FA0538B5002498
:100A000000BF002000901D48006840F080501B4946
:100A100008600846006800F08050009000BF00BFEA
:100A2000012017490864FFF7D5FE044607E0FFF7E9
:100A3000D1FE001BB0F57A7F01D9032038BD1148E3
:100A4000406800F48030B0F5803FF0D101200C49BF
:100A50004864FFF7BFFE044607E0FFF7BBFE001B3C
:100A6000B0F57A7F01D90320E8E70648406800F432
:100A70000030B0F5003FF0D10020DFE74038024001
:100A800000000E420070004070B504460D460CB9DF
:100A9000012070BD5848006800F00F00A84209D23C
:100AA00055490D700846006800F00F00A84201D0BB
:100AB0000120EEE7207800F0020002281DD1207806
:100AC00000F00400042805D14C48006840F4E050D0
:100AD0004A490860207800F00800082805D14748F6
:100AE000006840F46040454908604448006820F0D0
:100AF000F000A168084341490860207800F0010037
:100B0000A8B36068012807D13C4808380068C0F3E2
:100B10004040B8B90120BCE76068022802D0606894
:100B2000032807D1354808380068C0F3406048B949
:100B30000120AEE7314808380068C0F3400008B92A
:100B40000120A6E72D48006820F0030061680843F3
:100B50002A490860FFF73EFE064609E0FFF73AFE25
:100B6000801B41F28831884202D9032091E707E0D7
:100B70002248006800F00C006168B0EB810FEDD1F5
:100B80001D48006800F00F00A84209D91A490D70ED
:100B90000846006800F00F00A84201D0012078E765
:100BA000207800F00400042807D11448006820F4DD
:100BB000E050E168084311490860207800F008001F
:100BC000082808D10D48006820F46040216940EAF7
:100BD000C1000A49086000F051F808490968C1F3EA
:100BE0000311074A515CC84006490860064800687E
:100BF000FFF720FE00204CE7003C0240083802408E
:100C00002E2B00080C000020040000200F220260A0
:100C10000D4A126802F0030242600B4A126802F0A9
:100C2000F0028260084A126802F4E052C260064A8A
:100C3000126802F46042D2080261044A126802F0AB
:100C40000F020A607047000008380240003C024072
:100C500001480068704700000C00002000B5FFF755
:100C6000F7FF04490968C1F38221034A515CC84077
:100C700000BD0000083802403E2B00082DE9F04777
:100C8000002400250026A1462548006800F00C003D
:100C900020B1042805D008283AD105E0DFF8849077
:100CA00039E0DFF8849036E01D48001F006800F04E
:100CB0003F041B48001F006800F4800078B11A4808
:100CC0001749091F0968C1F38811A0FB017001468B
:100CD000224600233846FFF777FB05460EE0114811
:100CE0000F49091F0968C1F38811A0FB0170014673
:100CF000224600233846FFF767FB05460848001FD9
:100D00000068C0F30140401C4600B5FBF6F902E064
:100D1000DFF8109000BF00BF4846BDE8F087000034
:100D2000083802400024F40040787D01F8B50446FC
:100D30000CB90120F8BD207800F00100002874D023
:100D4000F948006800F00C0004280DD0F64800684F
:100D500000F00C00082813D1F348001F006800F4CD
:100D60008000B0F5800F0BD1EF4808380068C0F361
:100D70004040002859D06068002856D10120D9E7AA
:100D800000BF6068B0F5803F08D1E74808380068C8
:100D900040F48030E449083908601EE06068B0F52E
:100DA000A02F0DD1E0480838006840F48020DE49CB
:100DB000083908600846006840F4803008600CE09C
:100DC000D9480838006820F48030D74908390860CD
:100DD0000846006820F48020086000BF606890B179
:100DE000FFF7F8FC054606E0FFF7F4FC401B64281B
:100DF00001D903209EE7CC4808380068C0F3404082
:100E00000028F1D011E0FFF7E5FC054606E0FFF70A
:100E1000E1FC401B642801D903208BE7C248083855
:100E20000068C0F340400028F1D1207800F00200B3
:100E300002285FD1BC48006800F00C0058B1BA48E5
:100E4000006800F00C0008281CD1B748001F00689B
:100E500000F48000B0B9B44808380068C0F340001E
:100E600020B1E068012801D0012063E7AE480838CE
:100E7000006820F0F800216940EAC100AA49083959
:100E8000086037E0E06800B30120A8490860FFF778
:100E9000A1FC054606E0FFF79DFC401B022801D996
:100EA000032047E7A04808380068C0F34000002846
:100EB000F1D09D480838006820F0F800216940EA28
:100EC000C10099490839086014E00020974908607A
:100ED000FFF780FC054606E0FFF77CFC401B02287C
:100EE00001D9032026E7904808380068C0F3400085
:100EF0000028F1D1207800F0080008282CD1606982
:100F0000A8B101208A490860FFF764FC054606E0A5
:100F1000FFF760FC401B022801D903200AE7824842
:100F20006C300068C0F340000028F1D014E00020CD
:100F30007F490860FFF74EFC054606E0FFF74AFCD4
:100F4000401B022801D90320F4E677486C30006882
:100F5000C0F340000028F1D1207800F004000428FC
:100F600070D1002770483830006800F0805090B988
:100F700000BF002000906C483830006840F080507E
:100F80006949383108600846006800F080500090D8
:100F900000BF00BF01276748006800F48070B0B947
:100FA0006448006840F4807062490860FFF712FCF2
:100FB000054606E0FFF70EFC401B022801D903207E
:100FC000B8E65C48006800F480700028F2D000BFEA
:100FD000A068012808D154486830006840F001003A
:100FE0005149683108601DE0A06805280DD14E48C0
:100FF0006830006840F004004B49683108600846DA
:10100000006840F0010008600CE047486830006864
:1010100020F001004449683108600846006820F06B
:101020000400086000BFA068A8B1FFF7D3FB054625
:1010300009E0FFF7CFFB401B41F28831884202D91B
:10104000032077E626E0384868300068C0F34000A7
:101050000028EED013E0FFF7BDFB054608E0FFF7E0
:10106000B9FB401B41F28831884201D9032061E677
:101070002D4868300068C0F340000028EFD1012FF0
:1010800007D129483830006820F08050264938318F
:10109000086000BFA069002845D02348006800F020
:1010A0000C0008285DD0A069022845D100201F4906
:1010B0000866FFF78FFB054606E0FFF78BFB401B3A
:1010C000022801D9032035E6174808380068C0F324
:1010D00040600028F1D1D4E907010843616A40EA81
:1010E00081110122A06AC2EB500041EA00412C208C
:1010F000005D41EA00600C49091F086001200B49AE
:101100000866FFF767FB054606E0FFF763FB401B39
:10111000022801D903200DE6034808380068C0F30F
:1011200040600028F1D049E0083802400000474202
:10113000800E474200700040002021490866FFF7FA
:1011400049FB054606E0FFF745FB401B022801D995
:101150000320EFE51B480068C0F340600028F2D18F
:101160002CE0A069012800D1E4E51648001D0668BE
:10117000A069012820D006F48001E06981421BD1DA
:1011800006F03F01206A814216D147F6C070304018
:10119000616AB0EB811F0FD106F440310122A06AD1
:1011A000C2EB5000B1EB004F06D106F070612C206D
:1011B000005DB1EB006F01D00120BBE50020B9E577
:1011C000000047420038024070B504462546681EBC
:1011D000B0F1807F01D301200FE0681E4FF0E021C5
:1011E00048610F214FF0FF3000F0F8FA00204FF077
:1011F000E021886107200861002070BD70477047BA
:1012000010B504460CB9012010BD94F83D0028B972
:10121000002084F83C00204600F025F8022084F8E5
:101220003D00211D206800F05FFA012084F846008F
:1012300000BF84F83E0001213F20015540200155A8
:101240004120015500BF00BF012084F84200432027
:101250000155442001554520015500BF012084F867
:101260003D000020D0E77047014691F83D0001287D
:1012700001D001207047022081F83D000868C06855
:1012800040F001000B68D8601A4B086898421BD0E8
:101290000868B0F1804F17D0174B0868984213D0F8
:1012A000164B086898420FD0154B086898420BD02F
:1012B000144B0868984207D0134B0868984203D033
:1012C000124B086898420CD10868806800F0070249
:1012D000062A0CD00868006840F001000B6818600E
:1012E00005E00868006840F001000B681860002005
:1012F000C0E700000000014000040040000800407A
:10130000000C004000040140004001400018004073
:10131000704770B504462068C5682068066906F005
:101320000200022819D105F00200022815D1401F41
:1013300021680861012020772068806900F003009F
:1013400018B12046FFF7E4FF05E0204600F097F8CB
:10135000204600F095F80020207706F004000428CD
:1013600019D105F00400042815D1C0432168086193
:10137000022020772068806900F4407018B1204670
:10138000FFF7C6FF05E0204600F079F8204600F0A0
:1013900077F80020207706F00800082819D105F01A
:1013A0000800082815D1C04321680861042020776F
:1013B0002068C06900F0030018B12046FFF7A8FFBD
:1013C00005E0204600F05BF8204600F059F80020C8
:1013D000207706F01000102819D105F01000102811
:1013E00015D1C04321680861082020772068C069B2
:1013F00000F4407018B12046FFF78AFF05E0204650
:1014000000F03DF8204600F03BF80020207706F081
:10141000010048B105F0010030B16FF00100216812
:101420000861204600F02EF806F08000802809D1DF
:1014300005F08000802805D1C0432168086120465E
:10144000FFF7DCFE06F04000402809D105F040001F
:10145000402805D1C04321680861204600F01EF8ED
:1014600006F02000202809D105F02000202805D111
:10147000C043216808612046FFF7C1FE70BD704778
:101480007047000010B5044603492068884201D126
:10149000FFF7A6F910BD00000010004070470000E3
:1014A00000B587B0142102A8FFF705F800BF00209F
:1014B00001901E48006840F080001C490860084602
:1014C000006800F08000019000BF00BF00BF002056
:1014D00001900846006840F0020008600846006875
:1014E00000F00200019000BF00BF00BF002001908B
:1014F0000846006840F0010008600846006800F0F7
:101500000100019000BF00BF012203210848FFF73E
:101510005BF90320029001200390049000200590C5
:1015200002A90348FFF736F807B000BD3038024083
:101530000004024000BFFEE700BFFEE710B500F068
:1015400071FC00F073FFBDE8104000F079BC0000B2
:1015500000B593B0302107A8FEF7ADFF142102A813
:10156000FEF7A9FF00BF002001902748006840F067
:101570008050254908600846006800F080500190BE
:1015800000BF00BF00BF002001902048006840F469
:1015900040401E4908600846006800F44040019041
:1015A00000BF00BF0220079001200A9010200B907E
:1015B00002200D9000210E9108210F91B42110916D
:1015C000022111910421129107A8FFF7AFFB08B186
:1015D000FEF7DDFFFFF712FA08B1FEF7D8FF0F2084
:1015E000029002200390002004904FF4A050059038
:1015F0004FF480500690052102A8FFF745FA08B184
:10160000FEF7C5FF13B000BD403802400070004037
:1016100070B5274D2D6805F00C0222B1042A06D0C2
:10162000082A34D107E0234D234E356033E0234DA3
:10163000214E35602FE01E4D2D1F2D68C5F38054BF
:101640001B4D2D1F2D6805F03F0154B11B4DB5FBFF
:10165000F1F5174E361F3668C6F3881605FB06F0FF
:1016600009E0144DB5FBF1F5114E361F3668C6F38F
:10167000881605FB06F00E4D2D1F2D68C5F301459C
:101680006D1C6B00B0FBF3F50B4E356003E0094DAC
:10169000094E356000BF00BF054D2D68C5F3031529
:1016A000074E725D044D2D68D540034E356070BD08
:1016B000083802400024F4000C00002040787D012E
:1016C0002E2B00080348006840F4700001490860B0
:1016D0007047000088ED00E010B50248FFF719FEE2
:1016E00010BD00005803002010B502682B4B984233
:1016F0000ED0B0F1804F0BD0294B984208D0294B27
:10170000984205D0284B984202D0284B984203D1EA
:1017100022F070024B681A43204B984220D0B0F15F
:10172000804F1DD01E4B98421AD01E4B984217D0A6
:101730001D4B984214D01D4B984211D01C4B98421F
:101740000ED01C4B98420BD01B4B984208D01B4B21
:10175000984205D01A4B984202D01A4B984203D1B6
:1017600022F44072CB681A4322F080034C6943EAAA
:1017700004028B68C3620B688362084B984202D0F4
:101780000A4B984201D10B690363036843F00403D9
:10179000036001234361026010BD000000000140AE
:1017A0000004004000080040000C0040000401401C
:1017B0000040014000440140004801400018004042
:1017C000001C00400020004000BFFEE70248006807
:1017D000C0F30220704700000CED00E010B50028B7
:1017E00004DB0A07130E054A135406E00A07140E19
:1017F000034A00F00F031B1FD45410BD00E400E0A7
:1018000018ED00E0002807D00F4910F0FF0F05D0B9
:10181000C0B2085C401C70470020704710F47F4F36
:1018200004D0C0F30720085C0930704710F47F0F24
:1018300004D0C0F30740085C1130704701EB106022
:101840000078193070470000462B0008704710B52B
:101850000446A1882068FEF7A5FF10BD10B5044618
:10186000A1882068FEF7A6FF10BD70B504460D469E
:101870000DB1012300E000231A46A1882068FEF77D
:10188000A3FF70BD0146487E704710B50446204650
:10189000A1688847002060762046616A884710BDAD
:1018A00010B50446207E20B901212046E268904709
:1018B00003E000212046E26890470020607610BDDA
:1018C00010B50446207E20B900212046E2689047EA
:1018D00003E001212046E26890470120607610BDB8
:1018E00070B504460D46012D03D12046216A884774
:1018F00002E02046616A884770BD10B50446607EEC
:10190000012803D12046616A884702E02046216A07
:10191000884710BD10B5044605488068FFF772FF80
:10192000411E044850F831001438216010BD0000F9
:10193000600000201009002070B500F0F9FC04469A
:10194000FEF7A4FC0546204600F0CEFB04F144005F
:1019500000F039FE042084F83400204600F060FCDA
:101960002846FEF797FCBDE8704000F001BB000080
:1019700070B582B011469C46089E099D069B079A49
:10198000044604F11400406000602162C4F824C0E1
:10199000A362E2622321184600F060FAE16AA06ABD
:1019A0000F4B0844021F616A206A00F019FAE061D7
:1019B00084F835600020A063E5632564206384F823
:1019C000340020676067009001902346054A214655
:1019D00004F1440000F01AFE02B0002070BD0000C7
:1019E00039190008E919000870B50446FEF74EFCE5
:1019F00005466FF00100206304F114010A6848688D
:101A000050604A680868106049600960204600F02C
:101A10001FFB2846FEF73EFCBDE8704000F0A8BA68
:101A2000DDF800C02CF0010C80F809C0C161026231
:101A300000218162436200EBC102143252601260E5
:101A4000491C0129F7DB70471FB5002301220E490D
:101A50000E4801F03FF8002302220B490C4801F028
:101A600039F80A2014214FF400720A4BCDE90032F4
:101A7000CDE902100023084A08A1094800F014FC2F
:101A8000074800F07DFC1FBD0004024078000020E4
:101A9000AC00002058010020CD1A00086C656400DD
:101AA000E000002001608280044B8360044BC3602F
:101AB000044B0361044B4361704700004D1800085C
:101AC0006B1800084F1800085D1800080A48C16923
:101AD00088470A48C16988470DE00748816A8847F6
:101AE0004FF4FA7000F0F9FB0448816A88474FF41C
:101AF000FA7000F0F2FBF0E7AC0000207800002064
:101B0000FEF77AFEFFF724FDFFF7CAFCFFF79CFF04
:101B100003E04FF47A7000F0E0FBFAE710B500F054
:101B2000EFF8BDE81040FFF7EBBF00002DE9F04FE4
:101B300086B0DDF83CC0109D119CA846CDF800C0D1
:101B400014F0400F02D0DFF848A101E0DFF844A113
:101B500014F0100F01D024F0010414F0010F02D092
:101B60004FF0300901E04FF02009002614F0020F79
:101B70000DD0002A02DA2D26524208E014F0040F9C
:101B800001D02B2603E014F0080F00D020264FF0E0
:101B9000000C0DF1040B2AB930224FF0010C8DF826
:101BA00004200DE00A2B16D002F00F0712091AF8D4
:101BB00007E067460CF1010C0BF807E0002AF1D1B1
:101BC000AC4500DD6546009A521B14F0110F4FF032
:101BD00020070DD01CE0304FA7FB02E74FEAD70EDD
:101BE000CEF1000707EB870702EB47077246DEE7F7
:101BF00016B1002A00DD521E131EA2F1010207DDFC
:101C0000884200D20770401C131EA2F10102F7DCCB
:101C100026B1884200D20670521E401C14F0100FEC
:101C20000CD1131EA2F1010208DD884201D280F816
:101C30000090401C131EA2F10102F6DC6B1E6545EC
:101C40000FDD3024884200D20470401C1D465B1E0C
:101C50006545F7DC05E0884202D21BF80C300370C2
:101C6000401CBCF10003ACF1010C02DDB8F1000F27
:101C7000F1D1531E002A07DD884200D20770401CB4
:101C80001A1EA3F10103F7DC06B0BDE8F08F0000D7
:101C9000572C0008462C0008CDCCCCCC10B584B015
:101CA0000B4C14210A224FF48063A4F5806C01933D
:101CB00002920391CDF800C00023064A06A12046F7
:101CC00000F0F2FA04B02046BDE8104000F058BB26
:101CD000A00700201D1B00086D61696E0000000058
:101CE00070B5054C054DAC4204D220688047241DD8
:101CF000AC42FAD370BD00006C2C0008702C0008B8
:101D000070B5054C054DAC4204D220688047241DB7
:101D1000AC42FAD370BD0000702C0008742C00088F
:101D200070B50BE02C6F284600F019F9012802D19C
:101D3000284600F0BEF80CB12846A04700F056FA3D
:101D40000546002DEED170BD10B5FEF79FFA04498F
:101D50004A88521C4A80BDE81040FEF79BBA00003A
:101D60006000002010B5FEF791FA0B4C6188491E07
:101D700009B2618000290ADC00216180FEF78AFA3D
:101D80006068002807D0BDE8104000F0F1B8BDE859
:101D90001040FEF77FBA10BD6000002010B5FEF7BE
:101DA0002BFDFFF7D5FBFFF733FCFEF751FF4FF498
:101DB0007A71B0FBF1F0FFF707FABDE81040FFF7CA
:101DC0008FBF000010B5283004490968002902D0EF
:101DD0008847002800D0FEE710BD0000100000205A
:101DE00030B40546101D20F00700A0F14404204641
:101DF0000022DFF82CC040F822C0521C112AFAD36E
:101E0000416200218162C162016341638363C563F2
:101E10004FF0807202640160204630BC70470000C1
:101E2000EFBEADDE10B5FEF731FA04490A78521C58
:101E30000A70BDE81040FEF72DBA00002C0000200B
:101E400010B5FEF723FA04490A78521E0A70BDE85D
:101E50001040FEF71FBA00002C000020034601F0DE
:101E6000FF0C042A1CD310F0030F19D101464CEAD1
:101E70000C2343EA0343102A0AD341F8043B41F8F8
:101E8000043B41F8043B41F8043B103A102AF4D2D9
:101E9000042A04D341F8043B121F042AFAD20B4649
:101EA000511E05D30CF0FF0203F8012B491EFBD293
:101EB000704710B5044600202072FEF7E7F901468E
:101EC00004F10C00036842685A60436802681A60B3
:101ED00040600060BDE810400846FEF7DBB9000036
:101EE0000021074A02EB01131B78834202D102EB67
:101EF00001107047491C0329F4DB002070470000E3
:101F0000300000202DE9F04105460E4617463046C8
:101F1000FFF7E6FF0446FFF717FF6068211D8842C0
:101F200002D000688842FCD1FFF71CFF46F0800019
:101F3000287208223946284600F00AF9FEF7A6F969
:101F40000246201D05F10C010368596003680B600F
:101F500001604860BDE8F0411046FEF79BB9007A89
:101F600010F0800F01D00120704700207047000062
:101F70002DE9F843FEF78AF90746DFF8CC80B8F878
:101F8000020000285BD1D8F80800002857D00026AE
:101F90006846FFF7BFFC0446D8F8040090F83410F8
:101FA00001F00702032A10D190F83520009B9A42D5
:101FB00001D2044605E002D111F0080F26D04FF0FF
:101FC000010621F0080180F8341084422BD00099DA
:101FD00088F800100546C8F8044016B1284600F0FD
:101FE00037F8204600F080F894F8340020F007001D
:101FF00040F0030084F834001448007840B104F144
:102000001C0105F11C00FEF748F918E00446D8E76A
:1020100004F11C0105F11C00FEF73FF93846FEF7FC
:1020200039F9BDE8F88300F05FF8D8F8040090F8BB
:10203000341021F0070141F0030180F834103846D4
:10204000BDE8F843FEF726B9600000202C00002010
:1020500010B50446FEF71AF90346214A5068844237
:1020600008D194F8340020F0070040F0030084F811
:10207000340030E094F8340020F0070040F0010014
:1020800084F8340010F0080F164810D094F835107A
:1020900000EBC10004F11401D0F804C0CCF800102A
:1020A000D0F804C0C1F804C0416008600FE094F8A3
:1020B000351000EBC10004F11401D0F800C0CCF8D9
:1020C0000410D0F800C0C1F800C001604860A06BE7
:1020D000916808439060BDE810401846FEF7DAB8F2
:1020E000600000201009002010B50446FEF7CEF86D
:1020F000024604F114010B68486858604B68086890
:1021000018604960096094F835000A4901EBC00085
:102110000168814201D1012000E0002028B1064879
:10212000A16B836823EA01018160BDE8104010467D
:10213000FEF7B0B8100900206000002070470FB40F
:1021400010B504AA039900F09FFC10BC5DF814FBC5
:10215000002A09D0034611F801CB03F801CBBCF1EA
:10216000000F02D0521EF6D17047511EFCD0002243
:1021700003F8012B491EFBD170470000DFF820C097
:102180000023ACF802300020064A02EBC00149608F
:102190000960401C2028F8DBCCF8083070470000AC
:1021A000600000201009002038B56846FFF7B2FB38
:1021B0000446064844602046FFF796FF032084F853
:1021C000340004F11C00FEF7AEF838BD60000020BA
:1021D0000020044A02EBC00149600960401C00284D
:1021E000F8D07047700000207047000010B5002440
:1021F0000A48016881420FD0A1F11404FEF746F8A5
:1022000004F114010B684A685A604B680A681A6046
:1022100049600960FEF73EF8204610BD240000200A
:10222000044914300A6850600A680260086041601E
:102230007047000024000020FFF772FDFCE700005B
:102240002DE9F04786B00024DFF84C9020261F27A8
:102250004FF08008A9F17805224610A104A8FFF7E5
:102260006EFF09EBC4100090C4EB041005EBC00036
:10227000CDF804800297039682460023094A04A9F8
:1022800000F012F8504600F07BF8641C002CE3D0FC
:1022900006B0BDE8F0870000900800207469646C07
:1022A00065256400392200082DE9F04F85B00EAC99
:1022B0008146F0CC884692469B46424601214846DC
:1022C000FFF720FE8DE8F0005B4652464146484647
:1022D000FFF74EFB05B0BDE8F08F10B500F087F8B2
:1022E000BDE8104000F02AB870B5044694F83400F8
:1022F00000F00700022802D04FF0FF3070BDFDF75C
:10230000C5FF054604F114010A68486850604A6830
:10231000086810604960096004F1440000F0F4F9B5
:102320002046FFF795FE2846FDF7B4FF002070BD5C
:10233000014800687047000064000020F1B5FFF715
:10234000F7FF0446FDF7A2FF064600252563204659
:1023500000F029F86A46002104F1440000F006F973
:1023600004F1440000F068F93046FDF793FFFFF7F1
:10237000FFFD206B10F1020F00D12563206BF8BD2B
:1023800010B590F83510012202FA01F181630221A3
:1023900080F83410FFF7A8FFFFF7CAFF08B1FFF776
:1023A000E7FD002010BD70B5044694F8340000F03D
:1023B0000700012804D0032802D04FF0FF3070BD81
:1023C000FDF764FF05462046FFF78EFE94F83400C3
:1023D00020F0070040F0020084F8340004F14400CB
:1023E00000F092F92846FDF755FF002070BD002847
:1023F00002DA4FF0FF3070474FF47A7190FBF1F240
:102400004A4390FBF1F301FB130000EB4003C3EBE5
:10241000C0104B1E03EBC00090FBF1F0104470475E
:1024200001480068704700002000002010B5FDF74B
:102430002DFF04460F480168491C0160FFF778FF33
:10244000016C491E016431B12046FDF723FFBDE850
:10245000104000F011B8C16B016490F8341041F0E5
:10246000080180F834102046FDF714FFFFF780FDC7
:10247000EDE70000200000202DE9F04182B0684621
:1024800001900090FFF7CCFF8046FDF7FFFE074666
:1024900035480168814201D1012000E00020002878
:1024A0005CD1314D6FF000462868A0F11404A06A99
:1024B000A8EB0000B04251D22246002002EBC0013E
:1024C0001431D1F800C04B68CCF80430D1F804C006
:1024D0000B68CCF8003049600960401C0128EDDB36
:1024E000607A10F0020F02D120F00100607269469C
:1024F00004F11400009A5060009A0260009041605C
:10250000E169206A8847FFF78BFF8046684600999B
:10251000814201D1012000E00020B0B904F1140093
:102520000268416851604268016811604060006063
:10253000607A10F0020F08D010F0010F05D020F0E3
:1025400001006072204600F077F807480168814278
:1025500001D1012000E000200028A5D03846FDF779
:1025600099FE02B0BDE8F0817000002070B504460D
:102570000E461546FDF78AFE062E20D2DFE806F04D
:102580000603090E131D616A296018E0296861625B
:1025900015E0617A21F00201617210E0617A41F088
:1025A000020161720BE0617A11F0010F02D001218A
:1025B000296004E00021296001E0A16A2960FDF79B
:1025C00069FE002070BD70B50546FDF75FFE2C4624
:1025D000002204EBC2011431D1F800C04B68CCF8E2
:1025E0000430D1F804C00B68CCF8003049600960B1
:1025F000521C012AEDDB697A21F001016972FDF7B5
:1026000049FE2846FFF755FC002070BD2DE9F84330
:102610008046089D099C16461F460A460A214046E8
:10262000FFF770FC2B463A46314640460094FFF7D0
:10263000F7F9BDE8F88300002DE9F84304460025CA
:10264000FDF724FE81462246002102EBC100143032
:10265000D0F800C04368CCF80430D0F804C0036858
:10266000CCF8003040600060491C0129EDDB607A45
:1026700020F001006072FFF7D3FE616A4318A36285
:102680001F4F009700216FF00048EC4607EBC10296
:102690005CF821005668B0420ED05CF8210000685A
:1026A000A0EBC10252699A4202D0D21A424503D32A
:1026B0004CF82100B042F0D129B15CF8210008307B
:1026C0004A1C4CF82200491C0029DFD00D48016843
:1026D000491C0160009804F114010268516002680D
:1026E0000A6001604860607A40F00100607248460C
:1026F000FDF7D0FD0DB1FFF73BFC0020BDE8F883EE
:10270000700000206C00002070B50446607A10F064
:10271000010F1FD0FDF7BAFD03462046002200EB53
:10272000C20114310D68D1F804C0C5F804C04D6869
:10273000D1F800C0C5F800C049600960521C012AE8
:10274000EDDB607A20F0010060721846FDF7A2FD13
:10275000002070BD4FF0FF3070BD00002DE9FF4F2D
:1027600083B006460F461446F5193046854203D21B
:102770004FF0FF35C6F1FF372178002900F05C816A
:102780006FF02F094FF020084FF0250A21782529F6
:1027900005D0A84200D20170401C00F048B90021C9
:1027A000641C23782D2B1ED02B2B1FD0202B20D048
:1027B000232B21D0302B22D04FF0FF3294F800C0D1
:1027C000ACF1300CBCF10A0F1CD20022234602EB04
:1027D00082021B7809EB4202641C1A442378303BC6
:1027E0000A2BF3D31AE041F01001D9E741F00401BC
:1027F000D6E741F00801D3E741F02001D0E741F0EE
:102800000101CDE72A2B09D1641C069B53F8042B48
:102810000693002A02DA524241F010014FF0FF3BCA
:1028200023782E2B22D1641C2378A3F1300CBCF129
:102830000A0F0FD24FF0000B23460BEB8B0C1B78CB
:1028400009EB4C0C641C03EB0C0B2378303B0A2B7C
:10285000F2D306E02A2B04D1641C069B53F804BB78
:102860000693BBF1000F01DA4FF0000B4FF0000EA2
:102870002378682B01D06C2B01D19E46641C0A235F
:1028800094F800C0BCF16F0F7ED011DCBCF1630F77
:1028900027D006DCBCF1250F77D0BCF1580F13D13F
:1028A000ABE0BCF1640F71D0BCF1690F0CD1A8E0B2
:1028B000BCF1700F6BD0BCF1730F35D0BCF1750F4C
:1028C00066D0BCF1780F7BD0A84201D280F800A07E
:1028D000401C2178002974D0A84200D20170401C0D
:1028E000A5E011F0100F0AD1521E002A07DDA84200
:1028F00001D280F80080401C521E002AF7DC0699A5
:1029000011F8043B0691D9B2A84200D20170401CD4
:10291000511E002953DDA84201D280F80080401CDE
:10292000491E0029F7DC82E0DDF818C05CF8043BA2
:10293000CDF818C003B952A34FF0000C01E00CF120
:10294000010C944504D013F80CE0BEF1000FF6D151
:10295000BBF1000F02DDDC4500DDDC4611F0100F9D
:102960000CD11146521E614508DDA84201D280F803
:102970000080401C1146521E6145F6DC0021BCF16E
:10298000000F10DDA84204E035E02EE039E019E048
:1029900039E003D293F800B080F800B0401C5B1C13
:1029A000491C6145EEDB511E624540DDA84201D263
:1029B00080F80080401C0A46491E6245F6DC36E07D
:1029C0001DE03FE0B2F1FF3F02D1082241F00101DA
:1029D000CDF804B0029106990092102351F8042B0F
:1029E00006912946FFF7A2F821E0A84201D280F81B
:1029F00000A0401C1BE0082305E041F0400110232B
:102A000001E041F00201BEF16C0F1DD0BEF1680F74
:102A100021D0DDF818E05EF804CBCDF818E0009284
:102A20000291CDF804B062462946FFF77FF8641C96
:102A3000217800297FF4AAAEEFB10021A84218D274
:102A4000017018E0641EF2E7DDF818E05EF804CBD0
:102A5000CDF818E0E3E7DDF818C03CF804EBCDF85A
:102A600018C01FFA8EFC11F0020FD8D00FFA8CFCA0
:102A7000D5E705F8011C07B0801BBDE8F08F00000A
:102A8000284E554C4C29000007B50A464FF0FF313F
:102A9000029BFFF763FE03B000BD002070470020DB
:102AA0007047002070470020704710B5FDF7EEFB1F
:102AB000FFF774F9FFF742FBFFF78AFBFFF75EFBB6
:102AC000FFF7ECF8FFF790FBFFF7BAFBFFF76CFBA3
:102AD000002010BD2DE9F04104460E4617461D4664
:102AE0003A4631462046FEF7DDFF25760020607627
:102AF0000648E06106482062064860620648A06217
:102B00000648E06206482063BDE8F0818B180008A3
:102B1000C1180008A1180008FB180008E1180008F7
:102B2000851800084FF04070E1EE100A7047000071
:102B3000000000000000010203040607080900006D
:102B40000000010203040000010002000100030074
:102B50000100020001000400010002000100030066
:102B60000100020001000500010002000100030055
:102B70000100020001000400010002000100030046
:102B80000100020001000600010002000100030034
:102B90000100020001000400010002000100030026
:102BA0000100020001000500010002000100030015
:102BB0000100020001000400010002000100030006
:102BC00001000200010007000100020001000300F3
:102BD00001000200010004000100020001000300E6
:102BE00001000200010005000100020001000300D5
:102BF00001000200010004000100020001000300C6
:102C000001000200010006000100020001000300B3
:102C100001000200010004000100020001000300A5
:102C20000100020001000500010002000100030094
:102C30000100020001000400010002000100030085
:102C40000100020001003031323334353637383973
:102C5000616263646566003031323334353637384B
:102C60003941424344454600A72A00089F2A0008EC
:102C70009B2A0008A32A0008982C000800000020C6
:102C800078000000E8010008102D000878000020FE
:102C9000F80F00000402000800000000100000000F
:102CA000010000000024F40000000000000000000B
:102CB00000000000000000000000000024000020D0
:102CC000240000200000000001000000340000206B
:102CD00034000020780000000200000044000020C2
:102CE00044000020200000000A00000054000020E2
:102CF000540000202C000000000000000000000034
:102D000000000000000000000000000000000000C3
:04000005080001AD41
:00000001FF
